:020000040000FA
:100000000C9462000C948A000C948A000C948A0070
:100010000C948A000C948A000C948A000C948A0038
:100020000C948A000C948A000C948A000C948A0028
:100030000C948A000C948A000C948A000C948A0018
:100040000C94D3020C948A000C9443030C941D036B
:100050000C948A000C948A000C948A000C948A00F8
:100060000C948A000C948A000000000025002800EF
:100070002B0000000000240027002A0000000000E0
:1000800023002600290004040404040404040202DA
:100090000202020203030303030301020408102007
:1000A0004080010204081020010204081020000012
:1000B0000008000201000003040700000000000027
:1000C00000003B0411241FBECFEFD8E0DEBFCDBF40
:1000D00011E0A0E0B1E0E4E2F9E002C005900D9289
:1000E000A034B107D9F721E0A0E4B1E001C01D922E
:1000F000AB3EB207E1F710E0C2E6D0E004C02197C2
:10010000FE010E948A04C136D107C9F70E94750317
:100110000C9490040C940000AF92BF92CF92DF92A7
:10012000EF92FF920F931F93CF93DF936C017B01AC
:100130008B01040F151FEB015E01AE18BF08C0173D
:10014000D10759F06991D601ED91FC910190F081B0
:10015000E02DC6010995892B79F7C501DF91CF9173
:100160001F910F91FF90EF90DF90CF90BF90AF90D5
:100170000895FC01538D448D252F30E0842F90E0AD
:10018000821B930B541710F0CF9608950197089592
:10019000FC01918D828D981761F0A28DAE0FBF2F5B
:1001A000B11D5D968C91928D9F5F9F73928F90E0B1
:1001B00008958FEF9FEF0895FC01918D828D981720
:1001C00031F0828DE80FF11D858D90E008958FEF5D
:1001D0009FEF0895FC01918D228D892F90E0805C26
:1001E0009F4F821B91098F73992708958EE491E0A8
:1001F0000E94EA0021E0892B09F420E0822F089573
:1002000080E090E0892B29F00E94F60081110C9487
:1002100000000895FC01A48DA80FB92FB11DA35AA9
:10022000BF4F2C91848D90E001968F739927848F16
:10023000A689B7892C93A089B1898C918370806439
:100240008C93938D848D981306C00288F389E02DDA
:1002500080818F7D80830895EF92FF920F931F938B
:10026000CF93DF93EC0181E0888F9B8D8C8D981369
:100270001AC0E889F989808185FF15C09FB7F89475
:10028000EE89FF896083E889F989808183708064C1
:1002900080839FBF81E090E0DF91CF911F910F910C
:1002A000FF90EF900895F62E0B8D10E00F5F1F4F1B
:1002B0000F731127E02E8C8D8E110CC00FB607FC2A
:1002C000FACFE889F989808185FFF5CFCE010E94B8
:1002D0000A01F1CFEB8DEC0FFD2FF11DE35AFF4F1B
:1002E000F0829FB7F8940B8FEA89FB898081806246
:1002F000CFCFCF93DF93EC01888D8823B9F0AA8903
:10030000BB89E889F9898C9185FD03C0808186FDD0
:100310000DC00FB607FCF7CF8C9185FFF2CF80811F
:1003200085FFEDCFCE010E940A01E9CFDF91CF9189
:10033000089590E0FC01E255FF4F2491FC01E65640
:10034000FF4F3491FC01EA57FF4FE491EE23C1F1D6
:10035000222339F02330E9F090F4213001F12230EA
:1003600011F1F0E0EE0FFF1FE458FF4FA591B4919B
:10037000EC91E32381E090E029F580E008952730B7
:10038000A9F02830C9F0243061F7809180008F7D7A
:1003900003C0809180008F7780938000E2CF84B586
:1003A0008F7784BDDECF84B58F7DFBCF8091B00089
:1003B0008F778093B000D5CF8091B0008F7DF9CF3B
:1003C00080E090E00895CF93DF9390E0FC01E65643
:1003D000FF4F24918A579F4FFC0184918823C9F0D5
:1003E00090E0880F991FFC01EE58FF4FA591B49142
:1003F000FC01E859FF4FC591D49161110DC09FB721
:10040000F8948C91209582238C93888128232883CB
:100410009FBFDF91CF910895623051F49FB7F89458
:100420003C91822F809583238C93E8812E2BEFCFF4
:100430008FB7F894EC912E2B2C938FBFEACFFC0151
:1004400001900020E9F73197AF01481B590BBC011F
:100450008EE491E00C948C008F929F92AF92BF92A9
:100460000F931F93CF93DF93CDB7DEB7A1970FB64E
:10047000F894DEBF0FBECDBF19A2423008F44AE0A7
:100480008E010F5D1F4F842E912CB12CA12CA50144
:1004900094010E946804E62FB901CA01EA30F4F41D
:1004A000E05DD801EE938D01232B242B252B79F7CA
:1004B00090E080E0109719F0CD010E941F02A196F4
:1004C0000FB6F894DEBF0FBECDBFDF91CF911F9165
:1004D0000F91BF90AF909F908F900895E95CE1CF0E
:1004E000CF92DF92EF92FF92CF93DF936B017C016B
:1004F0006DE28EE491E00E942C01EC0166277727E3
:10050000CB016C197D098E099F094AE00E942C02DB
:100510008C0F9D1FDF91CF91FF90EF90DF90CF90D8
:1005200008950F931F93CF93DF93EC01062F0E9442
:10053000990111E0009709F410E0101731F0892BB0
:1005400051F482E191E00E941F02812FDF91CF914F
:100550001F910F91089581E291E00E941F02BE0158
:10056000DD0F880B990B4AE00E942C0283E391E097
:100570000E941F0260914001709141016F5F7F4FA7
:100580007093410160934001072E000C880B990B7A
:1005900097FF05C00E9470028DE391E0D4CF4AE03E
:1005A0000E942C02F9CF1F920F920FB60F921124C6
:1005B0002F933F938F939F93AF93BF9380914A0163
:1005C00090914B01A0914C01B0914D0130914901A6
:1005D00023E0230F2D3758F50196A11DB11D20935F
:1005E000490180934A0190934B01A0934C01B09331
:1005F0004D018091450190914601A0914701B09134
:1006000048010196A11DB11D8093450190934601BB
:10061000A0934701B0934801BF91AF919F918F91F3
:100620003F912F910F900FBE0F901F90189526E8C5
:10063000230F0296A11DB11DD2CF1F920F920FB6AC
:100640000F9211242F933F934F935F936F937F9358
:100650008F939F93AF93BF93EF93FF938EE491E0BB
:100660000E940A01FF91EF91BF91AF919F918F91ED
:100670007F916F915F914F913F912F910F900FBE9E
:100680000F901F9018951F920F920FB60F92112482
:100690002F938F939F93EF93FF93E0915E01F091DF
:1006A0005F018081E0916401F091650182FD1BC0D2
:1006B0009081809167018F5F8F732091680182170D
:1006C00041F0E0916701F0E0E25BFE4F958F80938F
:1006D0006701FF91EF919F918F912F910F900FBE26
:1006E0000F901F9018958081F4CF789484B5826024
:1006F00084BD84B5816084BD85B5826085BD85B5C6
:10070000816085BD80916E00816080936E00109243
:1007100081008091810082608093810080918100BE
:10072000816080938100809180008160809380004F
:100730008091B10084608093B1008091B0008160AD
:100740008093B00080917A00846080937A008091D9
:100750007A00826080937A0080917A008160809331
:100760007A0080917A00806880937A001092C100AC
:1007700060E082E00E94E30160E083E00E94E30128
:1007800060E084E00E94E30162E087E00E94E30110
:10079000E0915E01F0915F0182E08083E0915A0177
:1007A000F0915B011082E0915C01F0915D018FECB2
:1007B000808310926601E0916201F091630186E00E
:1007C0008083E0916001F09161018081806180838C
:1007D000E0916001F0916101808188608083E09107
:1007E0006001F0916101808180688083E091600107
:1007F000F091610180818F7D808382E00E94990168
:1008000021E0892B09F420E02093440183E00E9439
:10081000990121E0892B09F420E02093430184E031
:100820000E94990121E0892B09F420E020934201E4
:10083000C0E0D0E06091440182E090E00E9491022B
:10084000809344016091430183E090E00E94910213
:10085000809343016091420184E090E00E94910204
:1008600080934201209731F30E94F600882311F310
:100870000E940000DFCFEEE4F1E01382128288EEE6
:1008800093E0A0E0B0E084839583A683B78384E0FF
:1008900091E09183808385EC90E09587848784EC58
:1008A00090E09787868780EC90E0918B808B81EC3D
:1008B00090E0938B828B82EC90E0958B848B86EC1E
:1008C00090E0978B868B118E128E138E148E089566
:1008D000A1E21A2EAA1BBB1BFD010DC0AA1FBB1F44
:1008E000EE1FFF1FA217B307E407F50720F0A21BB6
:1008F000B30BE40BF50B661F771F881F991F1A9423
:1009000069F760957095809590959B01AC01BD014C
:10091000CF010895EE0FFF1F0590F491E02D09948B
:10092000F894FFCF000000002C018C00B900790181
:10093000EA00C800DC0046616C6C696E6720656483
:100940006765202000526973696E6720456467659A
:10095000202070696E3A002020636F756E743A2013
:04096000000D0A007C
:107E0000112484B714BE81FFF0D085E080938100F7
:107E100082E08093C00088E18093C10086E0809377
:107E2000C20080E18093C4008EE0C9D0259A86E02C
:107E300020E33CEF91E0309385002093840096BBD3
:107E4000B09BFECF1D9AA8958150A9F7CC24DD24C4
:107E500088248394B5E0AB2EA1E19A2EF3E0BF2EE7
:107E6000A2D0813461F49FD0082FAFD0023811F036
:107E7000013811F484E001C083E08DD089C08234E0
:107E800011F484E103C0853419F485E0A6D080C0E4
:107E9000853579F488D0E82EFF2485D0082F10E0AE
:107EA000102F00270E291F29000F111F8ED06801E7
:107EB0006FC0863521F484E090D080E0DECF843638
:107EC00009F040C070D06FD0082F6DD080E0C81688
:107ED00080E7D80618F4F601B7BEE895C0E0D1E017
:107EE00062D089930C17E1F7F0E0CF16F0E7DF06D8
:107EF00018F0F601B7BEE89568D007B600FCFDCFD4
:107F0000A601A0E0B1E02C9130E011968C91119780
:107F100090E0982F8827822B932B1296FA010C0160
:107F200087BEE89511244E5F5F4FF1E0A038BF0790
:107F300051F7F601A7BEE89507B600FCFDCF97BE46
:107F4000E89526C08437B1F42ED02DD0F82E2BD052
:107F50003CD0F601EF2C8F010F5F1F4F84911BD097
:107F6000EA94F801C1F70894C11CD11CFA94CF0C13
:107F7000D11C0EC0853739F428D08EE10CD085E9AC
:107F80000AD08FE07ACF813511F488E018D01DD067
:107F900080E101D065CF982F8091C00085FFFCCF94
:107FA0009093C60008958091C00087FFFCCF809118
:107FB000C00084FD01C0A8958091C6000895E0E648
:107FC000F0E098E1908380830895EDDF803219F02E
:107FD00088E0F5DFFFCF84E1DECF1F93182FE3DFCA
:107FE0001150E9F7F2DF1F91089580E0E8DFEE27F6
:047FF000FF270994CA
:027FFE00040479
:00000001FF
